:020000040800F2
:1000000000000220DD2A00086977000871770008E7
:10001000957700089D770008A5770008000000008C
:1000200000000000000000000000000095700008C3
:10003000492B000800000000A9700008E5730008C3
:10004000492B0008492B0008492B0008492B0008C0
:10005000492B0008492B0008E93500080D36000837
:10006000313600085536000879360008492B00085B
:10007000854A0008492B0008AD490008492B0008B3
:100080003D4A000865490008492B0008492B000833
:10009000492B0008492B0008492B00089D36000811
:1000A000492B0008492B000895750008492B0008CA
:1000B000492B0008492B0008492B0008492B000850
:1000C000492B0008492B0008492B0008492B000840
:1000D000492B00088D480008A5480008BD480008C5
:1000E000F9360008492B0008492B0008492B000865
:1000F000492B0008492B0008492B0008492B000810
:10010000492B0008492B0008A1710008492B000861
:10011000D5480008ED480008492B0008492B000885
:10012000492B0008492B0008492B0008492B0008DF
:10013000492B0008492B0008492B0008492B0008CF
:10014000492B0008492B0008492B0008492B0008BF
:10015000F5490008492B00081D4900080549000819
:10016000492B0008492B0008492B0008492B00089F
:10017000492B0008492B0008492B0008492B00088F
:0C018000492B0008492B00080000000873
:1001900081F0004102E000BF83F0004330B54FEA38
:1001A00041044FEA430594EA050F08BF90EA020FA5
:1001B0001FBF54EA000C55EA020C7FEA645C7FEA38
:1001C000655C00F0E2804FEA5454D4EB5555B8BF5B
:1001D0006D420CDD2C4480EA020281EA030382EACC
:1001E000000083EA010180EA020281EA0303362D5E
:1001F00088BF30BD11F0004F4FEA01314FF4801C31
:100200004CEA113102D0404261EB410113F0004F42
:100210004FEA03334CEA133302D0524263EB4303F9
:1002200094EA050F00F0A780A4F10104D5F1200E97
:100230000DDB02FA0EFC22FA05F2801841F10001F2
:1002400003FA0EF2801843FA05F359410EE0A5F1C6
:1002500020050EF1200E012A03FA0EFC28BF4CF0F7
:10026000020C43FA05F3C01851EBE37101F00045AD
:1002700007D54FF0000EDCF1000C7EEB00006EEBBA
:100280000101B1F5801F1BD3B1F5001F0CD3490844
:100290005FEA30004FEA3C0C04F101044FEA44529B
:1002A00012F5800F80F09A80BCF1004F08BF5FEA22
:1002B000500C50F1000041EB045141EA050130BD02
:1002C0005FEA4C0C404141EB010111F4801FA4F1A5
:1002D0000104E9D191F0000F04BF01460020B1FAFA
:1002E00081F308BF2033A3F10B03B3F120020CDA32
:1002F0000C3208DD02F1140CC2F10C0201FA0CF010
:1003000021FA02F10CE002F11402D8BFC2F1200C74
:1003100001FA02F120FA0CFCDCBF41EA0C0190402A
:10032000E41AA2BF01EB0451294330BD6FEA040473
:100330001F3C1CDA0C340EDC04F11404C4F120025E
:1003400020FA04F001FA02F340EA030021FA04F370
:1003500045EA030130BDC4F10C04C4F1200220FAC7
:1003600002F001FA04F340EA0300294630BD21FA05
:1003700004F0294630BD94F0000F83F4801306BFCB
:1003800081F480110134013D4EE77FEA645C18BFBF
:100390007FEA655C29D094EA050F08BF90EA020F56
:1003A00005D054EA000C04BF1946104630BD91EA4E
:1003B000030F1EBF0021002030BD5FEA545C05D151
:1003C0004000494128BF41F0004130BD14F5800490
:1003D0003CBF01F5801130BD01F0004545F0FE4104
:1003E00041F470014FF0000030BD7FEA645C1ABF39
:1003F000194610467FEA655C1CBF0B46024650EA70
:10040000013406BF52EA033591EA030F41F400219B
:1004100030BD00BF90F0000F04BF0021704730B521
:100420004FF4806404F132044FF000054FF00001F6
:1004300050E700BF90F0000F04BF0021704730B5B7
:100440004FF4806404F1320410F0004548BF40428C
:100450004FF000013EE700BF42004FEAE2014FEAE1
:1004600031014FEA02701FBF12F07F4393F07F4FBC
:1004700081F06051704792F0000F14BF93F07F4FEE
:10048000704730B54FF4607401F0004521F0004131
:1004900020E700BF50EA010208BF704730B54FF0B7
:1004A00000050AE050EA010208BF704730B511F0BC
:1004B000004502D5404261EB41014FF4806404F1F4
:1004C00032045FEA915C3FF4DCAE4FF003025FEA76
:1004D000DC0C18BF03325FEADC0C18BF033202EBFE
:1004E000DC02C2F1200300FA03FC20FA02F001FA58
:1004F00003FE40EA0E0021FA02F11444C1E600BFF7
:1005000070B54FF0FF0C4CF4E06C1CEA11541DBFA9
:100510001CEA135594EA0C0F95EA0C0F00F0DEF874
:100520002C4481EA030621EA4C5123EA4C5350EA59
:10053000013518BF52EA033541F4801143F48013AA
:1005400038D0A0FB02CE4FF00005E1FB02E506F03B
:100550000042E0FB03E54FF00006E1FB03569CF090
:10056000000F18BF4EF0010EA4F1FF04B6F5007F96
:1005700064F5407404D25FEA4E0E6D4146EB060608
:1005800042EAC62141EA55514FEAC52040EA5E5091
:100590004FEACE2EB4F1FD0C88BFBCF5E06F1ED83B
:1005A000BEF1004F08BF5FEA500E50F1000041EB72
:1005B000045170BD06F0004646EA010140EA02001F
:1005C00081EA0301B4EB5C04C2BFD4EB0C0541EA41
:1005D000045170BD41F480114FF0000E013C00F356
:1005E000AB8014F1360FDEBF002001F0004170BD7A
:1005F000C4F10004203C35DA0C341BDC04F1140493
:10060000C4F1200500FA05F320FA04F001FA05F21E
:1006100040EA020001F0004221F0004110EBD370EB
:1006200021FA04F642EB06015EEA430E08BF20EA17
:10063000D37070BDC4F10C04C4F1200500FA04F3BA
:1006400020FA05F001FA04F240EA020001F000414C
:1006500010EBD37041F100015EEA430E08BF20EABF
:10066000D37070BDC4F1200500FA05F24EEA020E07
:1006700020FA04F301FA05F243EA020321FA04F036
:1006800001F0004121FA04F220EA020000EBD370ED
:100690005EEA430E08BF20EAD37070BD94F0000FED
:1006A0000FD101F00046400041EB010111F4801F21
:1006B00008BF013CF7D041EA060195F0000F18BFD2
:1006C000704703F00046520043EB030313F4801F0E
:1006D00008BF013DF7D043EA0603704794EA0C0FC8
:1006E0000CEA135518BF95EA0C0F0CD050EA4106DE
:1006F00018BF52EA4306D1D181EA030101F000415B
:100700004FF0000070BD50EA410606BF1046194682
:1007100052EA430619D094EA0C0F02D150EA01368E
:1007200013D195EA0C0F05D152EA03361CBF1046CF
:1007300019460AD181EA030101F0004141F0FE416E
:1007400041F470014FF0000070BD41F0FE4141F4F2
:10075000780170BD70B54FF0FF0C4CF4E06C1CEAF2
:1007600011541DBF1CEA135594EA0C0F95EA0C0FA7
:1007700000F0A7F8A4EB050481EA030E52EA033562
:100780004FEA013100F088804FEA03334FF0805583
:1007900045EA131343EA12634FEA022245EA1115B0
:1007A00045EA10654FEA00260EF000419D4208BF61
:1007B000964244F1FD0404F5407402D25B084FEA0E
:1007C0003202B61A65EB03055B084FEA32024FF4BA
:1007D00080104FF4002CB6EB020E75EB030E22BF17
:1007E000B61A754640EA0C005B084FEA3202B6EBD7
:1007F000020E75EB030E22BFB61A754640EA5C0086
:100800005B084FEA3202B6EB020E75EB030E22BF15
:10081000B61A754640EA9C005B084FEA3202B6EB16
:10082000020E75EB030E22BFB61A754640EADC00D5
:1008300055EA060E18D04FEA051545EA16754FEA37
:1008400006164FEAC30343EA52734FEAC2025FEA55
:100850001C1CC0D111F4801F0BD141EA00014FF0E4
:1008600000004FF0004CB6E711F4801F04BF0143B5
:100870000020B4F1FD0C88BFBCF5E06F3FF6AFAED1
:10088000B5EB030C04BFB6EB020C5FEA500C50F161
:10089000000041EB045170BD0EF0004E4EEA1131E4
:1008A00014EB5C04C2BFD4EB0C0541EA045170BDEB
:1008B00041F480114FF0000E013C90E645EA060E2F
:1008C0008DE60CEA135594EA0C0F08BF95EA0C0F5D
:1008D0003FF43BAF94EA0C0F0AD150EA01347FF4A5
:1008E00034AF95EA0C0F7FF425AF104619462CE77C
:1008F00095EA0C0F06D152EA03353FF4FDAE1046DF
:10090000194622E750EA410618BF52EA43067FF42F
:10091000C5AE50EA41047FF40DAF52EA43057FF4BF
:10092000EBAE12E74FF0FF3C06E000BF4FF0010CCA
:1009300002E000BF4FF0010C4DF804CD4FEA410C2E
:100940007FEA6C5C4FEA430C18BF7FEA6C5C1BD0FB
:1009500001B050EA410C0CBF52EA430C91EA030F7C
:1009600002BF90EA020F0020704710F1000F91EAD9
:10097000030F58BF994208BF90422CBFD8176FEAA7
:10098000E37040F0010070474FEA410C7FEA6C5C75
:1009900002D150EA013C07D14FEA430C7FEA6C5C7C
:1009A000D6D152EA033CD3D05DF8040B704700BFA8
:1009B0008446104662468C461946634600E000BFF6
:1009C00001B5FFF7B7FF002848BF10F1000F01BDC8
:1009D0004DF808EDFFF7F4FF0CBF012000205DF893
:1009E00008FB00BF4DF808EDFFF7EAFF34BF012018
:1009F00000205DF808FB00BF4DF808EDFFF7E0FFB1
:100A000094BF012000205DF808FB00BF4DF808ED01
:100A1000FFF7CEFF94BF012000205DF808FB00BF68
:100A20004DF808EDFFF7C4FF34BF012000205DF84A
:100A300008FB00BF4FEA410212F5001215D211D592
:100A40006FF47873B3EB625212D94FEAC12343F0CB
:100A5000004343EA505311F0004F23FA02F018BF4D
:100A6000404270474FF00000704750EA013005D116
:100A700011F0004008BF6FF0004070474FF00000D9
:100A8000704700BF4A0011D212F5001211D20DD5E5
:100A90006FF47873B3EB62520ED44FEAC12343F084
:100AA000004343EA505323FA02F070474FF000002E
:100AB000704750EA013002D14FF0FF3070474FF0DD
:100AC0000000704773B96AB9002908BF0028BCBF8D
:100AD00000204FF00041C4BF6FF000414FF0FF30E5
:100AE00000F08CB882B0EC462DE9005000F056F8CA
:100AF000DDF804E002B00CBC704700BF4BB942B94E
:100B0000002908BF002802D04FF0FF31084600F04E
:100B100075B882B0EC462DE9005000F057F8DDF8CA
:100B200004E002B00CBC704738B500220023044634
:100B30000D46FFF757FF28B920462946BDE8384043
:100B400000F00AB8204605F1004100F005F84042E7
:100B500061EB410138BD00BF70B500220D4B04466A
:100B60000D46FFF7CDFCFFF78DFF0646FFF752FC61
:100B70000022094BFFF7C4FC02460B4620462946DB
:100B8000FFF70AFBFFF77EFF002242EA000420463F
:100B9000314670BD0000F03D0000F0412DE970438A
:100BA000069E14461D468046894600F029F804FB3F
:100BB00001F300FB0533A4FB00451D44B8EB04041E
:100BC00069EB0505C6E90045BDE870832DE9704372
:100BD000069E1446804689461D4600F05DF900FBDE
:100BE00005F504FB0153A0FB04451D44B8EB0404C8
:100BF00069EB0505C6E90045BDE87083704700BF95
:100C000000292DE9F00FC0F29F800024002BC0F2D4
:100C10009680154606460F46002B3ED18A4257D98C
:100C2000B2FA82F34BB1C3F1200201FA03F720FAC2
:100C300002F29D40174300FA03F6290CB7FBF1F2CC
:100C4000330C01FB127CA8B243EA0C4700FB02F311
:100C5000BB4209D97F1902F1FF3C80F00181BB4200
:100C600040F2FE80023A2F44FF1AB7FBF1F3B6B20E
:100C700001FB137146EA014100FB03F0884208D9E9
:100C8000491903F1FF3780F0ED80884240F2EA8095
:100C9000023B43EA0242002303E08B420AD90023CD
:100CA0001A461046194614B1404261EB4101BDE8B5
:100CB000F00F7047B3FA83F8B8F1000F40F084806A
:100CC0008B4202D3824200F2DE8000230122E8E759
:100CD00012B90123B3FBF2F5B5FA85F2002A39D136
:100CE0007F1B280C1FFA85FC0123B7FBF0F1320CA7
:100CF00000FB117742EA07470CFB01F2BA4207D921
:100D00007F1901F1FF3802D2BA4200F2C180414698
:100D1000BF1AB7FBF0F2B6B200FB127046EA004011
:100D20000CFB02FC844507D9401902F1FF3702D2BF
:100D3000844500F2AB803A4642EA0142B1E7E4431F
:100D4000524263EB430364E7404261EB41014FF0E1
:100D5000FF345BE79540C2F1200327FA03F1280C2A
:100D600026FA03F39740B1FBF0F81F433B0C00FB5E
:100D700018111FFA85FC43EA01410CFB08F38B4272
:100D800006FA02F608D9491908F1FF3279D28B42E6
:100D900077D9A8F102082944C91AB1FBF0F3BFB210
:100DA00000FB131147EA01470CFB03F2BA4207D9D3
:100DB0007F1903F1FF3160D2BA425ED9023B2F4462
:100DC000BF1A43EA084390E7C8F1200203FA08FC7F
:100DD00025FA02F343EA0C0C4FEA1C4921FA02F30C
:100DE00001FA08F720FA02F2B3FBF9F1174309FB05
:100DF00011333A0C1FFA8CFB42EA03430BFB01FA56
:100E00009A4505FA08F008D913EB0C0301F1FF32FB
:100E100035D29A4533D902396344CAEB0303B3FB95
:100E2000F9F209FB1233BFB247EA03470BFB02F9A1
:100E3000B94508D917EB0C0702F1FF331BD2B945AE
:100E400019D9023A674442EA0145A5FB0001C9EB02
:100E500007078F424FF000030AD305D02A4620E748
:100E6000624601E73B4614E706FA08F68642F5D2E9
:100E70006A1E002315E71A46E5E70B46A0E7114670
:100E8000CBE7904688E7434642460AE7023A53E7F3
:100E900002392F443CE700BF2DE9F00F1446054608
:100EA0000E46002B43D18A4253D9B2FA82F757B18A
:100EB000C7F1200620FA06F601FA07F302FA07F452
:100EC0001E4300FA07F5210CB6FBF1F22B0C01FBD7
:100ED0001267A0B243EA074600FB02F3B34209D906
:100EE000361902F1FF3780F0F680B34240F2F3800A
:100EF000023A2644F61AB6FBF1F3ADB201FB1361D8
:100F000045EA014100FB03F0884208D9091903F1C1
:100F1000FF3680F0E280884240F2DF80023B43EA05
:100F20000242002310461946BDE8F00F70478B427D
:100F30004AD8B3FA83F6002E4DD18B4202D38242B7
:100F400000F2D6800023012210461946BDE8F00FBA
:100F5000704712B90124B4FBF2F4B4FA84F2002A07
:100F60007CD1091B260CA7B20123B1FBF6F02A0C99
:100F700006FB101142EA014107FB00F28A4207D941
:100F8000091900F1FF3C02D28A4200F2C380604698
:100F9000891AB1FBF6F2ADB206FB121145EA014522
:100FA00007FB02F7AF4208D92C1902F1FF3180F09C
:100FB0009680A74240F29380023A42EA00421046ED
:100FC0001946BDE8F00F704700231A46104619462F
:100FD000BDE8F00F7047C6F1200522FA05F4B340D2
:100FE0001C434FEA144821FA05F301FA06F720FAE8
:100FF00005F5B3FBF8FC2F4308FB1C333D0C1FFA2F
:1010000084FA45EA03430AFB0CF9994502FA06FB08
:1010100004D91B190CF1FF326DD39446C9EB0303BD
:10102000B3FBF8F508FB1533BFB247EA03470AFBE9
:1010300005F8B84504D93F1905F1FF3361D31D46C2
:1010400045EA0C4CACFB0B23C8EB07079F424FF063
:10105000000549D345D062462B4663E79440C2F170
:10106000200321FA03FC260C20FA03F301FA02F50F
:10107000BCFBF6F843EA05010B0C06FB18CCA7B243
:1010800043EA0C4C07FB08F3634500FA02F509D963
:101090001CEB040C08F1FF323AD2634538D9A8F1B1
:1010A0000208A444C3EB0C0CBCFBF6F389B206FBAC
:1010B00013CC41EA0C4107FB03F28A4207D9091914
:1010C00003F1FF3022D28A4220D9023B2144891AFF
:1010D00043EA084349E73A460CE733461FE70A4626
:1010E0006BE7B0409042B6D20CF1FF32002319E713
:1010F0003346324616E799458FD9ACF1020C2344AA
:101100008CE7B8459BD9023D274499E70346DEE7C3
:101110009046C7E7023821443AE700BF80B582B065
:1011200000AF78607B680A4A1A600A4800F0FEFD4A
:101130007B680433184600F079FE0023002B02D0B0
:10114000786800F0EBFE7B6818460837BD4680BD26
:10115000A8D90008B0D0000880B582B000AF786090
:101160007868FFF7DBFF786800F0D8FE7B681846E8
:101170000837BD4680BD00BF80B582B000AF786043
:101180007B680A4A1A600A4800F0D0FD7B68043385
:10119000184600F04BFE0023002B02D0786800F0C8
:1011A000BDFE7B6818460837BD4680BDF0D90008F3
:1011B000C0D0000880B582B000AF78607868FFF7D3
:1011C000DBFF786800F0AAFE7B6818460837BD464A
:1011D00080BD00BF80B582B000AF78607B68064AF2
:1011E0001A600023002B02D0786800F097FE7B681D
:1011F00018460837BD4680BD90D9000880B582B03A
:1012000000AF78607868FFF7E5FF786800F086FE49
:101210007B6818460837BD4680BD00BF80B584B0E6
:1012200000AFF860B9607A603B60044800F07EFD72
:10123000002318461037BD4680BD00BFD4D000083B
:1012400080B582B000AF786039607B681846396835
:1012500064224FF4FA6306F043FE7B68034A1A6087
:101260007B6818460837BD4680BD00BF50D90008CE
:1012700080B582B000AF786009484FF4612103F077
:1012800025FC084801210122002301F057FF0648F0
:1012900001210122002301F051FF0837BD4680BD26
:1012A000EC080020080900202409002000000000AC
:1012B00080B582B000AF7860274802F091F803460D
:1012C000DB432548194602F03FF800F00BFF0246C9
:1012D0000B4610461946FFF7E5F802460B46104646
:1012E000194619A3D3E90023FFF734FA02460B4647
:1012F0001A4800F0D5FC1A481A490C2203F0BEFD2A
:1013000000F0F0FE12A3D3E90023121843EB01030F
:1013100010461946002206F033FF134802F060F829
:101320000346DB431048194602F00EF800F0DAFEDF
:1013300007A3D3E90023121843EB01031046194613
:10134000002206F01DFFB7E70000000065CDCD418B
:1013500080B2E60E00000000080900205CD1000801
:10136000EC08002080D1000824090020AFF30080A1
:1013700080B582B000AF786039607B681846396804
:1013800064224FF4FA6306F0ABFD7B68034A1A60EF
:101390007B6818460837BD4680BD00BF38D90008B5
:1013A00080B582B000AF786009484FF4612103F046
:1013B0008DFB084801210122002301F0BFFE0648F1
:1013C00001210122002301F0B9FE0837BD4680BD8E
:1013D000EC0800200809002024090020000000007B
:1013E00080B582B000AF7860274801F0F9FF03466E
:1013F000DB432548194601F0A7FF00F073FE0246C3
:101400000B4610461946FFF74DF802460B461046AC
:10141000194619A3D3E90023FFF79CF902460B46AE
:101420001A4800F03DFC1A481A490C2203F026FD28
:1014300000F058FE12A3D3E90023121843EB010376
:1014400010461946002206F09BFE134801F0C8FF23
:101450000346DB431048194601F076FF00F042FED8
:1014600007A3D3E90023121843EB010310461946E2
:10147000002206F085FEB7E70000000065CDCD41F3
:1014800080B2E60E00000000080900205CD10008D0
:10149000EC08002080D1000824090020AFF3008070
:1014A00080B582B000AF786039607B6818463968D3
:1014B00064224FF4FA6306F013FD7B68034A1A6056
:1014C0007B6818460837BD4680BD00BF20D900089C
:1014D00080B582B000AF78600C4801210122012361
:1014E00001F02CFE0A4801210122012301F026FE11
:1014F000084801210122012301F020FE06484FF493
:10150000612103F0E3FA0837BD4680BD600A002080
:101510007C0A0020980A0020EC080020000000004F
:1015200080B596B002AF78600F2387F84830424A02
:1015300007F1440312881A80282387F840303F4877
:101540003F49002202F03AFB97F8443003F03F0392
:10155000DBB287F844303B48002101F0F5FE07F18B
:10156000440336481946022202F0B2FD35480121F3
:1015700001F0EAFE97F84830DBB203F03F03DBB23C
:1015800063F07F03DBB2DBB287F848302D480021DF
:1015900001F0DAFE97F8403063F03F03DBB287F8E2
:1015A000403007F1400207F13C030321009123483A
:1015B0001146012202F022FE2248012101F0C4FE60
:1015C00097F83C301A4697F83D3097F83E10084699
:1015D00007F10801009008461B4908F0E1F807F1FF
:1015E0000803184600F030FC034607F108021748CC
:1015F00011461A4603F042FC00F074FD0CA3D3E937
:101600000023121843EB010310461946002206F08E
:10161000B7FD00F067FD06A3D3E90023121843EBE2
:10162000010310461946002206F0AAFD7CE700BF20
:1016300080F0FA0200000000B8D10008B40A0020CF
:1016400040420F00600A002090D10008EC08002002
:1016500080B584B000AFF860B9607A60FB68184666
:10166000B96801227B6800F0A9FDFB68034A1A6093
:10167000FB6818461037BD4680BD00BF80D9000802
:1016800080B483B000AF78607B68044A1A607B68DE
:1016900018460C37BD465DF8047B704790D90008AA
:1016A00080B582B000AF78607B681846FFF7E8FF2E
:1016B0007B68114A1A607B681A1D7B689A607B6898
:1016C0005A1D7B68DA607B689A1D7B681A617B68AB
:1016D00000221A7579684FF000024FF00003C1E94B
:1016E00008237B68D3E908237968C1E906237B686E
:1016F00018460837BD4680BD68D9000880B582B05D
:1017000000AF78607B68084A1A607B68184606F06C
:1017100055FC0023002B02D0786800F0FFFB7B68AB
:1017200018460837BD4680BD20D9000880B582B074
:1017300000AF78607868FFF7E1FF786800F0EEFBB3
:101740007B6818460837BD4680BD00BF80B582B0B3
:1017500000AF78607B68084A1A607B68184606F01C
:101760002DFC0023002B02D0786800F0D7FB7B68AB
:1017700018460837BD4680BD38D9000880B582B00C
:1017800000AF78607868FFF7E1FF786800F0C6FB8B
:101790007B6818460837BD4680BD00BF80B582B063
:1017A00000AF78607B68084A1A607B68184606F0CC
:1017B00005FC0023002B02D0786800F0AFFB7B68AB
:1017C00018460837BD4680BD50D9000880B582B0A4
:1017D00000AF78607868FFF7E1FF786800F09EFB63
:1017E0007B6818460837BD4680BD00BF80B582B013
:1017F00000AF78607B68084A1A607B681846FFF77C
:10180000E9FC0023002B02D0786800F087FB7B689E
:1018100018460837BD4680BD68D9000880B582B03B
:1018200000AF78607868FFF7E1FF786800F076FB3A
:101830007B6818460837BD4680BD00BF80B584B0C0
:1018400002AF786039607B68012B66D13A684FF649
:10185000FF739A4261D13248324940F2D17200F0AE
:1018600035F92F483049314A07F094FF30480221BA
:1018700002F03EFF2F483C2101F02CFC2E483F2176
:1018800001F028FC2D484FF0FF312D4AFFF7E0FE14
:101890002A482C49254A07F07DFF2B48FFF700FF17
:1018A00029482A49214A07F075FF00230093284858
:1018B0002249254A274B00F03BFB254826491B4A75
:1018C00007F068FF25482649FFF7BAFC2348254959
:1018D000164A07F05FFF24482449FFF749FD2248D4
:1018E0002349124A07F056FF2248122101F0F2FB69
:1018F0002148202101F0EEFB2048372101F0EAFBCE
:101900001F48012102F022F91E481F49FFF7C8FDB8
:101910001C481E49054A07F03DFF0837BD4680BDFB
:10192000D0080020BCD100080D1B0008540C00207A
:10193000EC080020080900202409002040090020AC
:10194000C8D10008C519000868090020ED17000873
:1019500090090020D4D1000879110008C0090020A6
:10196000E8D100089D170008100A0020F4D10008F3
:101970004D170008600A00207C0A0020980A002009
:10198000B40A0020D00A002000D20008FD1600088A
:1019900080B584B000AFF860B9607A603B607B6866
:1019A000012B04D9064800F0C1F9002304E0F868CF
:1019B000396800F035F8012318461037BD4680BD60
:1019C0000CD2000880B582B000AF78607B680A4A0C
:1019D0001A600A4800F0AAF97B681846FFF79EFBD8
:1019E0000023002B02D0786800F098FA7B68184634
:1019F0000837BD4680BD00BF80D9000820D200084E
:101A000080B582B000AF78607868FFF7DBFF786858
:101A100000F084FA7B6818460837BD4680BD00BFD9
:101A200080B485B000AF786039607B68DB68FB60AC
:101A30007B689A687B68DA607B68FA689A607B6882
:101A40001B7DDBB2002B09D07B689B68FB607B6849
:101A50001A697B689A607B68FA681A617B68D3E9C7
:101A60000623013243F100037968C1E906231437E4
:101A7000BD465DF8047B704780B500AF01204FF68E
:101A8000FF71FFF7DBFE80BD80B483B000AF7860EC
:101A90007B681B6818460C37BD465DF8047B7047B1
:101AA00080B483B000AF78607B685B6818460C3701
:101AB000BD465DF8047B704780B483B000AF7860AA
:101AC0000C37BD465DF8047B704700BF80B584B01D
:101AD00000AFF860B9607A60FB68043318460949C2
:101AE000BA68002300F05AF9FB68074A1A60FB68DD
:101AF0007A685A61FB6801221A76FB68184610372B
:101B0000BD4680BD200B0020B8D9000880B582B04A
:101B100000AF78607B680A4A1A600A4800F006F94C
:101B20007B680433184600F081F90023002B02D0B3
:101B3000786800F0F3F97B6818460837BD4680BD29
:101B4000B8D9000830D2000880B582B000AF786004
:101B50007868FFF7DBFF786800F0E0F97B681846EB
:101B60000837BD4680BD00BF80B483B000AF786049
:101B70007B6801221A760C37BD465DF8047B7047FE
:101B800080B483B000AF78607B6800221A760C378F
:101B9000BD465DF8047B704780B485B000AFF86047
:101BA000B9607A603B604FF0FF3318461437BD468A
:101BB0005DF8047B704700BF90B583B000AF154B54
:101BC0001B68002B03D0134B1B68043B00E0002371
:101BD0007B6018E07B685C697B6804331846FFF71C
:101BE0005FFF03460C4821461A4600F059F87B680F
:101BF00004331846FFF748FF0346002B01D0043B8F
:101C000000E000237B607B68002BE3D10C37BD46EE
:101C100090BD00BF200B002044D2000880B582B0E8
:101C200000AF78607B68064A1A600023002B02D060
:101C3000786800F073F97B6818460837BD4680BDA8
:101C4000D8D9000880B582B000AF78607868FFF717
:101C5000E5FF786800F062F97B6818460837BD46F2
:101C600080BD00BF80B582B000AF78600B46FB70CE
:101C700097F90330184605F0E3FD0837BD4680BDEF
:101C800080B483B000AF78607B68044A1A607B68D8
:101C900018460C37BD465DF8047B7047D8D900085C
:101CA0000FB480B582B000AF1C4B1B68002B2FD047
:101CB0003B461846FFF7E4FF07F114037B60184B1F
:101CC0001B68002B05D0164B1B681648194600F000
:101CD000B3FE06F00BF8034683F00103DBB2002BE2
:101CE00005D03B461846396900F034FC0AE00E483E
:101CF00006F04AF83B461846396900F02BFC0A48C2
:101D000006F0A0F805F0DEFD3B461846FFF786FF1B
:101D10000837BD46BDE8804004B07047040000208D
:101D2000240B002060D20008280B002080B582B070
:101D300000AF7860074B7A681A6007487968FFF748
:101D4000AFFF064B1B685A1C044B1A600837BD4690
:101D500080BD00BF0000002074D20008240B0020CA
:101D600080B582B000AF786039607B68012B07D105
:101D70003A684FF6FF739A4202D1034805F0ECFF30
:101D80000837BD4680BD00BF280B002080B500AFDE
:101D900001204FF6FF71FFF7E3FF80BD80B584B0EF
:101DA00000AFF860B9607A603B60FB683A68DA605F
:101DB000FB687A685A60084B1B68591C064A116018
:101DC000FA689360F868B96800F008F8FB6818468C
:101DD0001037BD4680BD00BF380B002080B582B0F3
:101DE00000AF786039603B681A687B681A603B68AE
:101DF0007A681A600A4B1B68002B0CBF0023012372
:101E0000DBB2002B08D00748FFF790FF7B685B68C8
:101E100005481946FFF744FF0837BD4680BD00BF9F
:101E2000081E0020A0D20008D4D2000880B582B0DD
:101E300000AF78600348FFF779FF7B6818460837E2
:101E4000BD4680BDF8D2000880B485B000AF786090
:101E50000023FB607B68002B01D100230BE005E031
:101E6000FB680133FB607B6801337B607B681B7818
:101E7000002BF5D1FB6818461437BD465DF8047B8E
:101E8000704700BF80B487B000AFF860B9607A6077
:101E9000FB68002B01D1FB6810E0FB687B6109E067
:101EA000BB68DAB27B691A707B6901337B617B683E
:101EB000013B7B607B68002BF2D1FB6818461C3726
:101EC000BD465DF8047B704780B487B000AFF86012
:101ED000B9607A60FB687B61BB683B617B69002B02
:101EE00002D03B69002B01D1002311E00CE03B69DB
:101EF0001A787B691A707B68013B7B603B69013310
:101F00003B617B6901337B617B68002BEFD1FB6810
:101F100018461C37BD465DF8047B704780B483B01B
:101F200000AF78600C37BD465DF8047B704700BF9A
:101F300080B584B000AFF860B9607A603B60FB6840
:101F4000043318461049114A0023FFF727FFFB68A6
:101F50000F4A1A60FB68BA685A61FB68203318465A
:101F600005F0FAFEFB683A7E1A77FB6801225A7781
:101F7000FB683A689A60FB687A689A61FB68184661
:101F80001037BD4680BD00BFD01E002020D3000802
:101F9000F0D9000880B485B000AFF860B9607A600D
:101FA0003B60034B18461437BD465DF8047B704711
:101FB00015CD5B0790B587B002AFF860B9607A6065
:101FC0003B60FB685B7F83F00103DBB2002B01D039
:101FD00000233DE0FB682033184605F0D5FEFB6882
:101FE0009B69002B0FD0FB689B691B6808331C683A
:101FF000FB689A697B68396A00911046B9681A468D
:102000003B68A04718E0FB681B681C683B6A5B697B
:102010000093F868B9687A683B68A04702460E4B9F
:102020009A420CBF00230123DBB2002B04D00B48E3
:10203000FFF77CFE01230BE0FB682033184605F018
:1020400001FFFB689B69002B01D0012300E0002306
:1020500018461437BD4690BD15CD5B072CD300083C
:1020600090B58DB002AFF860B9607A603B60FB68F4
:102070009B69002B0FD0FB689B691B6808331C68A9
:10208000FB689A693B6807F1100100911046B96836
:102090001A467B68A0472C37BD4690BD80B483B0FC
:1020A00000AF786079684FF000024FF00003C1E99B
:1020B000002379684FF000024FF00003C1E90223CA
:1020C00079684FF000024FF00003C1E904237B68F8
:1020D00011229A617B6818460C37BD465DF8047B77
:1020E000704700BF80B500AF05F0CAFA02460B4644
:1020F0001046194680BD00BF80B584B000AFC7E967
:102100000201C7E90023D7E90223D7E9060190427B
:1021100071EB030C02DAD7E902232CE0D7E90023A4
:1021200052EA030104D14FF0FF326FF0004322E086
:10213000D7E90601D7E90223821A61EB03031046AF
:102140001946D7E90023FEF7BDFC02460B460132D3
:1021500043F10003396803FB01F0796802FB01F1E8
:1021600001443868A0FB022319440B46D7E9020159
:10217000121843EB0103104619461037BD4680BDC7
:1021800080B582B000AF786039607B68012B07D1E1
:102190003A684FF6FF739A4202D10348FFF77EFF79
:1021A0000837BD4680BD00BF400B002080B500AFA2
:1021B00001204FF6FF71FFF7E3FF80BD80B586B0C9
:1021C00000AFF860B9607A603B60FB680433184682
:1021D0002E493A680023FFF7E1FDFB682C4A1A609C
:1021E000FB6800225A61FB68BA68DA61FB687A68AA
:1021F0001A62FB6800229A61FB68DB69B3F1FF3F5A
:1022000011D1386806F08AFA03461A46FB68DA618B
:10221000FB68DB69B3F57A7F05DAFB68DB6903F5F8
:102220007A72FB68DA61194B1B68002B03D0174BDD
:102230001B68043B00E000237B611EE07B69DA69D8
:10224000BB689A420DD17A69FB689A4209D011485D
:10225000FFF76CFD7B699B680F48B9683A68FFF728
:102260001FFD7B6904331846FFF70EFC0346002B65
:1022700001D0043B00E000237B617B69002BDDD1B2
:10228000FB6818461837BD4680BD00BFE01E002021
:10229000A8D900088CD30008A0D3000880B582B06C
:1022A00000AF78607B680A4A1A600A48FFF73EFD73
:1022B0007B681846FEF732FF0023002B02D07868B7
:1022C000FFF72CFE7B6818460837BD4680BD00BF6F
:1022D00030DA000818D4000880B582B000AF78600A
:1022E0007868FFF7DBFF7868FFF718FE7B68184611
:1022F0000837BD4680BD00BF80B584B000AFF86030
:10230000B9607A60FB681846B9680C227B68FFF7F1
:1023100055FFFB68034A1A60FB6818461037BD4634
:1023200080BD00BF30DA000880B584B000AFF8602F
:10233000B9607A60FB681846B96840F22E527B6833
:10234000FFF73CFFFB68034A1A60FB68184610372A
:10235000BD4680BD20DA000880B584B000AFF860CB
:10236000B9607A60FB681846B96804227B68FFF799
:1023700025FFFB68034A1A60FB6818461037BD4604
:1023800080BD00BF10DA000880B582B000AF786071
:1023900039607B68012B4FD13A684FF6FF739A4240
:1023A0004AD1274827490A22FFF790FB24482649AB
:1023B000264A07F0EFF926480021264AFFF79CFF3E
:1023C00023482549214A07F0E5F924484FF0FF3119
:1023D000234AFFF7A9FF214822491C4A07F0DAF9EE
:1023E00021484FF0FF31214AFFF7B6FF1E48204930
:1023F000164A07F0CFF91F484FF0FF311E4AFFF78A
:10240000ABFF1C481A49114A07F0C4F91B484FF0AA
:10241000FF311B4AFFF7A0FF184815490B4A07F088
:10242000B9F918484FF0FF31174AFFF765FF154813
:102430000949064A07F0AEF90837BD4680BD00BF1E
:10244000600B002028D400080D1B0008540C00204D
:102450007C0B00203CD400089D220008A00B00202B
:102460004CD40008E9240008C40B002058D400080C
:102470008D240008E80B002068D400080C0C002014
:1024800078D40008300C00208CD4000880B582B0CD
:1024900000AF78607B680A4A1A600A48FFF746FC7A
:1024A0007B681846FEF73AFE0023002B02D07868BE
:1024B000FFF734FD7B6818460837BD4680BD00BF76
:1024C00010DA000818D4000880B582B000AF786038
:1024D0007868FFF7DBFF7868FFF720FD7B68184618
:1024E0000837BD4680BD00BF80B582B000AF7860C0
:1024F0007B680A4A1A600A48FFF718FC7B6818468E
:10250000FEF70CFE0023002B02D07868FFF706FDD3
:102510007B6818460837BD4680BD00BF20DA00083A
:1025200018D4000880B582B000AF78607868FFF7F3
:10253000DBFF7868FFF7F2FC7B6818460837BD467A
:1025400080BD00BF80B500AF01204FF6FF71FFF7DF
:102550001BFF80BD80B594B000AF7860396056E253
:10256000002387F84E30002387F84D30002387F88A
:102570004C30002387F84B3097F84F30252B0AD08A
:102580007B681B6808331B6897F84F2052B2786845
:10259000114698473BE23B685A1C3A601B7887F823
:1025A0004F30002387F84330202387F8423003233D
:1025B00087F8413097F84F30302B09D197F84F30DA
:1025C00087F842303B685A1C3A601B7887F84F30D6
:1025D00097F84F302F2B0ED997F84F30392B0AD858
:1025E00097F84F30303B87F843303B685A1C3A60CD
:1025F0001B7887F84F3097F84F302E2B10D13B685F
:102600005A1C3A601B7887F84F3097F84F30303BB0
:1026100087F841303B685A1C3A601B7887F84F3086
:1026200097F84F306C2B08D1012387F84D303B6869
:102630005A1C3A601B7887F84F3097F84F306C2B54
:1026400008D1012387F84C303B685A1C3A601B784C
:1026500087F84F3097F84F30623B162B38D801A1DE
:1026600051F823F05D270008C1260008472700081D
:10267000D126000841270008D1260008D1260008ED
:10268000D1260008D1260008D1260008D12600084E
:10269000D1260008D12600082B270008D1260008E3
:1026A000D1260008D1260008E7260008D126000818
:1026B0004D270008D1260008D1260008552700081C
:1026C0007B685B68191D7A6851601B6887F84F301A
:1026D0007B681B6808331B6897F84F2052B27868F4
:1026E0001146984793E17B685B68191D7A685160D1
:1026F0001B687B6409E07B681B6808331B6897F8DC
:102700004F2052B27868114698477B6C5A1C7A6405
:102710001B7887F84F3097F84F30002B0CBF002301
:102720000123DBB2002BE6D171E10823A7F8483082
:102730007B681B6808331B6878683021984711E074
:10274000012387F84B30012387F84E300A23A7F87E
:10275000483007E01023A7F8483003E00223A7F829
:10276000483000BF4FF000024FF00003C7E90C23D0
:102770004FF000024FF00003C7E90A2397F84B30EF
:10278000002B15D07B685B68073323F0070303F148
:1027900008017A685160D3E90023C7E90A23D7E921
:1027A0000A01FEF7C1F902460B46C7E90C232CE0EB
:1027B00097F84C30002B0DD07B685B68073323F013
:1027C000070303F108017A685160D3E90023C7E9E0
:1027D0000C231AE097F84D30002B0BD07B685B6818
:1027E000191D7A6851601B681A464FEAE273C7E9FF
:1027F0000C230AE07B685B68191D7A6851601B68CE
:102800001A464FEAE273C7E90C2397F84E30002BC3
:102810002DD0D7E90C23002A73F100010ADBD7E998
:102820000A014FF000024FF00003FEF7DBF8034609
:10283000002B1CD0D7E90C23524263EB4303C7E9BA
:102840000C23BB6ABB62FB6A83F00043FB627B68BC
:102850001B6808331B6878682D21984797F8433028
:10286000002B04D097F84330013B87F8433097F8AA
:102870004C30002B04D0D7E90C23C7E90E2310E01D
:1028800097F84D30002B06D03B6B1A464FF00003F3
:10289000C7E90E2305E03B6B1A464FF00003C7E97A
:1028A0000E2307F10C031A337B647B6C013B7B64C2
:1028B0007B6C00221A70B7F848204FF00003D7E96C
:1028C0000E01FEF71BF9D3B23033DBB287F82730A5
:1028D00097F92730392B05DD97F827300733DBB21E
:1028E00087F827307B6C013B7B6497F827207B6C53
:1028F0001A70B7F848204FF00003D7E90E01FEF731
:10290000FDF802460B46C7E90E2397F84330002B2B
:1029100004D097F84330013B87F84330D7E90E23C2
:1029200052EA0301C7D106E07B6C013B7B647B6C00
:1029300097F842201A7097F843305A1E87F84320C0
:10294000002B0CBF00230123DBB2002BECD109E0EC
:102950007B681B6808331B6897F84F2052B2786871
:10296000114698477B6C5A1C7A641B7887F84F3065
:1029700097F84F30002B0CBF00230123DBB2002B54
:10298000E6D197F84B30002B41D07B681B680833A9
:102990001B6878682E2198472DE0D7E90C01FDF7D8
:1029A00081FD02460B46D7E90A01FDF7F5FB024619
:1029B0000B46C7E90A23D7E90A014FF000021D4B75
:1029C000FDF79EFD02460B46C7E90A23D7E90A0137
:1029D000FEF7AAF802460B46C7E90C237B681B6882
:1029E00008331B6897F830203032D2B2D2B252B2DC
:1029F00078681146984797F841305A1E87F8412069
:102A0000002B0CBF00230123DBB2002BC5D13B6898
:102A10005A1C3A601B7887F84F3097F84F30002BDC
:102A20000CBF00230123DBB2002B7FF499AD50379C
:102A3000BD4680BD000024400FB480B582B000AF19
:102A40000C4B1B68002B0FD03B461846FFF718F9BC
:102A500007F114037B603B4618463969FFF77AFD9E
:102A60003B461846FFF7DAF80837BD46BDE8804018
:102A700004B070470400002080B582B000AF0C4B5A
:102A80007B6008E07B681B6898473B6801333B60CC
:102A90007B6804337B607A68064B9A42F2D13B68CC
:102AA00001333B603B68013B3B600837BD4680BD5E
:102AB00054DD000878DD000880B485B000AFF86010
:102AC000B9607A60002318461437BD465DF8047B70
:102AD000704700BF80B400AFFEE700BF002100F0E8
:102AE00004B8124B5B58435004311148114B421843
:102AF0009A42FFF4F6AF104A00F003B8002342F800
:102B0000043B0E4B9A42FFF4F9AF0D4A00F003B8B4
:102B1000002342F8043B0B4B9A42FFF4F9AF04F058
:102B2000D7FEFFF7A9FF05F0FDFF704778DD00082D
:102B300000000020CC080020D00800202CBF00207E
:102B4000000000100000001004F030FEFFF7FCBF92
:102B500080B483B000AF786039603B6818460C37AA
:102B6000BD465DF8047B70470FB480B400AF00230E
:102B70001846BD465DF8047B04B070470FB480B4BE
:102B800000AF00231846BD465DF8047B04B07047D3
:102B90000FB480B400AF00231846BD465DF8047B37
:102BA00004B070470FB480B400AF00231846BD4690
:102BB0005DF8047B04B070470FB480B400AF00230D
:102BC0001846BD465DF8047B04B070470FB480B46E
:102BD00000AF00231846BD465DF8047B04B0704783
:102BE00080B483B000AF7860012318460C37BD462F
:102BF0005DF8047B704700BF80B483B000AF78609D
:102C0000012318460C37BD465DF8047B704700BFB2
:102C100080B483B000AF0346FB71084B97F90720DF
:102C20005209F97901F01F01012000FA01F143F87E
:102C300022100C37BD465DF8047B704700E100E0D0
:102C400080B483B000AF0346FB71094B97F90720AE
:102C50005209F97901F01F01012000FA01F16032F7
:102C600043F822100C37BD465DF8047B704700BF67
:102C700000E100E080B500AF124B1B7883F0010348
:102C8000DBB2002B1CD00F4B01221A704FF4804096
:102C9000012103F061FD0620FFF7BAFF0720FFF7CF
:102CA000B7FF0820FFF7B4FF0920FFF7B1FF0A20A4
:102CB000FFF7AEFF1720FFF7ABFF2820FFF7A8FFB5
:102CC00080BD00BF980C002080B582B000AF786056
:102CD00079807A703B707B687A881A807B687A7812
:102CE0001A727B683A785A72786800F023F8B7F95C
:102CF0000230184600F008F902467B685A617B688A
:102D00000C33184603F0A8FB7B685B891A467B6886
:102D1000DA607B6802225A747B6800221A747B682E
:102D200000221A767B6800225A767B68184608379C
:102D3000BD4680BD80B483B000AF78607B681B7AED
:102D40001A467B681B889BB203F00F031344102BB9
:102D50000CDD7B681B889BB203F00F034FF6FF72FC
:102D600002FA03F39AB27B685A8117E07B681B7AF8
:102D7000C3F110034FF6FF7242FA03F39AB27B6875
:102D80005A817B685B891A467B681B889BB203F07B
:102D90000F0302FA03F39AB27B685A810C37BD46DF
:102DA0005DF8047B704700BF80B582B000AF7860EB
:102DB0007B6801225A767B685B681B6830331B682E
:102DC0007A685268104698470A4A7B681B8819B28D
:102DD000094B0B40002B03DA013B63F00F03013377
:102DE0009BB21BB2012101FA03F353610837BD46C0
:102DF00080BD00BF003C01400F00008080B485B062
:102E000000AF78600023FB6002E0FB680133FB60E9
:102E10007B685B087B607B68002B0CBF0023012371
:102E2000DBB2002BF1D1FB6818461437BD465DF8C4
:102E3000047B704780B483B000AF78607B68274A1A
:102E4000934234D0254A934213D8254A934228D03E
:102E5000234A934206D8234A93421ED0224A9342E1
:102E60001DD033E0214A93421DD0214A93421CD009
:102E70002CE0204A934220D01E4A934206D81E4A94
:102E8000934216D01D4A934215D01FE01C4A93422C
:102E900016D01C4A934216D018E0012317E00223F3
:102EA00015E0042313E0082311E010230FE0202392
:102EB0000DE040230BE0802309E04FF4807306E02F
:102EC0004FF4007303E04FF4806300E000231846E2
:102ED0000C37BD465DF8047B704700BF001402400C
:102EE000000802400000024000040240000C0240C2
:102EF000001002400020024000180240001C024066
:102F0000002402400028024080B483B000AF034692
:102F1000FB80B7F906300F2B01DC1C4B30E0B7F912
:102F200006301F2B01DC1A4B2AE0B7F906302F2B95
:102F300001DC184B24E0B7F906303F2B01DC164BBF
:102F40001EE0B7F906304F2B01DC144B18E0B7F93F
:102F500006305F2B01DC124B12E0B7F906306F2B05
:102F600001DC104B0CE0B7F906307F2B01DC0E4B77
:102F700006E0B7F906308B2B01DC0C4B00E0002398
:102F800018460C37BD465DF8047B704700000240D0
:102F90000004024000080240000C02400010024001
:102FA0000014024000180240001C024000200240B1
:102FB00080B483B000AF0346FB80FB8803F00F03AF
:102FC000012202FA03F39BB218460C37BD465DF8A6
:102FD000047B704780B586B000AF02460B46FA808E
:102FE0007B71B7F90630002B03DBB7F906308B2B6A
:102FF00002DD4FF0FF3338E0B7F906301846FFF72F
:1030000083FF7861B7F906301846FFF7D1FF034612
:103010007B827869FFF70EFF03461846012103F013
:103020005FFB7869FFF706FF03461846002103F0AF
:10303000B1FB7B8A1846FFF7E1FE03469AB27B7923
:10304000786911461A4603F04BFA07F1080318464F
:1030500003F002FA02233B737B8ABB6007F108038B
:103060007869194603F06AF9002318461837BD46F7
:1030700080BD00BF80B584B000AF0346FB80B7F9C8
:103080000630002B03DBB7F906308B2B02DD4FF047
:10309000FF331AE007F10803184603F0DDF90023B7
:1030A0003B73B7F906301846FFF782FF0346BB6053
:1030B000B7F906301846FFF727FF024607F1080365
:1030C0001046194603F03AF9002318461037BD465A
:1030D00080BD00BF90B583B000AF78600B467B80A9
:1030E0007B68184605F06CFB7B68134A1A601C204D
:1030F00005F086FD02467B689A617B689B691C200F
:103100001946FFF725FD0446002C09D0B7F9023017
:103110002046194601220023FFF7D6FD234600E092
:1031200023467A6893617B689B697A685A607B68FA
:1031300018460C37BD4690BD40DA000880B584B013
:1031400000AFF8607A603B600B46FB727B68002B37
:1031500004D0FB689B697A68D2B21A72FB689B69DB
:10316000FA7A5A72FB689B691846FFF7E3FDFB6821
:103170009B695B69002B02D14FF0FF3321E0FB68B4
:103180009B695B691846FFF755FE03461846012107
:1031900003F0A6FAFB689B695B7A002B09D0F868FC
:1031A0000021012200F012F8F868396800F0CCF82C
:1031B00004E0F8680021002200F008F8FFF75AFD4B
:1031C000002318461037BD4680BD00BF80B584B0CF
:1031D00000AFF8600B467A60FB72FB7A042B00F2BA
:1031E0009B8001A252F823F0FD3100083D32000817
:1031F00087320008C3320008FF3200087B68002BCA
:1032000008D0FB689B6901225A72FB689B69012206
:103210001A7407E0FB689B6900225A72FB689B697D
:1032200000221A74FB689B695A69FB689B690C331E
:103230001046194603F082F800236FE07B68002BEC
:103240001ED07B68FF2B1BD8FB689B697A68D2B2C3
:103250001A72FB689B691846FFF76CFDFB689B6957
:10326000FA6892695289DA60FB689B695A69FB685F
:103270009B690C331046194603F060F800234DE0BB
:103280004FF0FF334AE07B68002B17D07B68002BA0
:1032900004D0FB689B690122DA7403E0FB689B6938
:1032A0000022DA74FB689B695A69FB689B690C33DE
:1032B0001046194603F042F800232FE04FF0FF3389
:1032C0002CE07B68002B17D07B68002B04D0FB68B8
:1032D0009B690222DA7403E0FB689B690022DA74BE
:1032E000FB689B695A69FB689B690C331046194659
:1032F00003F024F8002311E04FF0FF330EE07B6869
:10330000022B06D8FB689B697A68D2B21A76002332
:1033100004E04FF0FF3301E04FF0FF331846103761
:10332000BD4680BD80B582B000AF7860786800216E
:1033300000F09EF87B689B691B881BB21846FFF75C
:1033400099FE0837BD4680BD80B584B000AF786077
:10335000396000237B817B689B695B7A002B3CD0C2
:1033600040F2EB3005F0DEFC03460133FB6031E058
:103370007B689B695B69184603F096F803469AB22E
:103380007B689B695B899BB2DB439BB213409BB21A
:103390007B817B689B691B889BB203F00F033A68B3
:1033A00002FA03F39AB27B689B695B8913409AB275
:1033B0007B8913437B817B689B695A697B891046B3
:1033C000194603F07FF8FB68013B184605F0AAFC9C
:1033D0000023FB60FB68002BCAD11037BD4680BDBF
:1033E00080B582B000AF78607B689B695B7A002B08
:1033F00016D07B689B695B69184603F055F8034655
:103400001A467B689B695B8913409BB21A467B68AE
:103410009B691B889BB203F00F0342FA03F315E08C
:103420007B689B695B69184603F030F803461A46CF
:103430007B689B695B8913409BB21A467B689B69DA
:103440001B889BB203F00F0342FA03F318460837B8
:10345000BD4680BD80B483B000AF78607B689B6957
:103460005B7E18460C37BD465DF8047B704700BF95
:1034700080B586B000AF78600B46FB707B689B69B7
:103480001B881BB2002B00DA0F331B119BB21BB23F
:103490007B617B689B691B881AB24E4B1340002BE3
:1034A00003DA013B63F00F0301339BB21BB23B61B4
:1034B0003B69FB60FB78002B5DD0474BFA6853F803
:1034C00022207B689B699A4200D17FE0424BFA68D8
:1034D00053F82230002B4AD17B689B691B7A012B61
:1034E00003D93E48FEF722FC70E07B69DAB23B6903
:1034F000DBB21046194603F069FA7B689B691B7EB4
:10350000012B04D07B689B691B7E002B08D1344BB8
:10351000334A916801203A6900FA02F20A439A603C
:103520007B689B691B7E022B04D07B689B691B7E9A
:10353000002B08D12A4B2A4AD16801203A6900FAA7
:1035400002F20A43DA607B689969234BFA6843F810
:1035500022107B689B6900225A76214B204A116811
:1035600001203A6900FA02F20A431A602EE01D486F
:10357000FEF7DCFB2AE0184BFA6853F822207B6840
:103580009B699A4222D1164B154A116801203A696B
:1035900000FA02F2D2430A401A60114B104A9168B5
:1035A00001203A6900FA02F2D2430A409A600C4BB9
:1035B0000B4AD16801203A6900FA02F2D2430A406C
:1035C000DA60054BFA68002143F822101837BD462F
:1035D00080BD00BF0F000080580C002098D4000868
:1035E000003C0140BCD4000880B500AF064B1B680E
:1035F000002B04D0044B1B681846FFF7D5FB0620B0
:10360000FFF71EFB80BD00BF580C002080B500AF47
:10361000064B5B68002B04D0044B5B681846FFF731
:10362000C3FB0720FFF70CFB80BD00BF580C002038
:1036300080B500AF064B9B68002B04D0044B9B6801
:103640001846FFF7B1FB0820FFF7FAFA80BD00BF6C
:10365000580C002080B500AF064BDB68002B04D06F
:10366000044BDB681846FFF79FFB0920FFF7E8FAD9
:1036700080BD00BF580C002080B500AF064B1B6911
:10368000002B04D0044B1B691846FFF78DFB0A2062
:10369000FFF7D6FA80BD00BF580C002080B582B07D
:1036A00000AF134B5B693B6005237B6017E03A6812
:1036B0007B6822FA03F303F00103002B0CD00D4BBF
:1036C0007A6853F82230002B06D00A4B7A6853F8F8
:1036D00022301846FFF768FB7B6801337B607B680C
:1036E000092BE4DD1720FFF7ABFA0837BD4680BD94
:1036F000003C0140580C002080B582B000AF134B55
:103700005B693B600A237B6017E03A687B6822FABA
:1037100003F303F00103002B0CD00D4B7A6853F830
:103720002230002B06D00A4B7A6853F82230184614
:10373000FFF73AFB7B6801337B607B680F2BE4DD8E
:103740002820FFF77DFA0837BD4680BD003C0140C8
:10375000580C002080B483B000AF78600023184676
:103760000C37BD465DF8047B704700BF80B483B062
:1037700000AF78607B6818460C37BD465DF8047B67
:10378000704700BF80B584B002AF78600B46FB7015
:10379000FB78022B0DD0032B15D0012B1DD1FB780C
:1037A00015220092786819461322142300F020F89D
:1037B00016E0FB781F220092786819461D221E230E
:1037C00000F016F80CE0FB782C220092786819467D
:1037D0002A222B2300F00CF802E00448FEF7A6FA98
:1037E0007B6818460837BD4680BD00BFF0D400088E
:1037F00080B586B000AFF860F9723A81FB80FB6853
:10380000FA7A1A70FB6800225A70584B7B6178690B
:1038100002F0F2FB7B694FF480629A617B690022BF
:103820005A617B690022DA617B6900221A627B6936
:1038300000225A627B694FF400329A627B6904224B
:10384000DA627B6900225A637B6900229A63B7F9C6
:1038500008301846FFF7ACFB03461A46FB68DA62ED
:10386000B7F908301846FFF74FFB0246FB689A632A
:10387000B7F906301846FFF79BFB03461A46FB686C
:103880005A62B7F906301846FFF73EFB0246FB685E
:103890001A63B7F920301846FFF78AFB03461A4629
:1038A000FB689A62B7F920301846FFF72DFB0246F5
:1038B000FB685A63FB7A022B1FD0032B37D0012BF6
:1038C0004ED1FB682A4A5A60FB682A4ADA60FB68D4
:1038D000294A1A61FB68294A5A61FB684FF0C052B5
:1038E0009A61FB684FF0C062DA61FB684FF0C0621A
:1038F0001A62FB680522DA6335E0FB68204A5A60E9
:10390000FB68204ADA60FB681F4A1A61FB684FF0C7
:10391000C0525A61FB681D4A9A61FB680022DA6155
:10392000FB6800221A62FB680522DA631BE0FB6871
:10393000174A5A60FB68174ADA60FB68164A1A6130
:10394000FB680E4A5A61FB68144A9A61FB680022C0
:10395000DA61FB6800221A62FB680622DA6302E081
:103960000F48FEF7E3F91837BD4680BD9C0C0020D8
:1039700000300140106402405864024020000010F2
:103980000038004058600240706002402000002073
:10399000003C0040106002408860024000080020A7
:1039A000F0D4000880B582B000AF786000BF7B68BB
:1039B0001B69184602F080FB0346002B0CBF002356
:1039C0000123DBB2002BF2D100BF7B685B681B894F
:1039D0009BB203F00203002B14BF00230123DBB2D0
:1039E000002BF2D100BF7B685B681B899BB203F0A0
:1039F0008003002B0CBF00230123DBB2002BF2D18C
:103A000000BF7B68DB68184602F056FB0346002BBC
:103A10000CBF00230123DBB2002BF2D102E07B6854
:103A20005B689B897B685B681B899BB203F0010321
:103A3000002B0CBF00230123DBB2002BEFD1083792
:103A4000BD4680BD80B58CB000AF7860396007F1AD
:103A50000C03184602F09AFD7B681B78022B06D0F7
:103A6000032B07D0012B08D1BB69FB620BE07B69FC
:103A7000FB6208E07B69FB6205E03348FEF756F91C
:103A80004FF0FF335CE00023BB62FB6A5A083B68DF
:103A90009A4236D9FA6A3B68B2FBF3F37B6202E0E2
:103AA000BB6A0133BB627B6A5B087B627B6A002B6B
:103AB0000CBF00230123DBB2002BF1D1BB6A002B2A
:103AC00002D0BB6A013BBB62BB6A0233FA6A22FACC
:103AD00003F33B62BB6A0133FA6A22FA03F3FB6128
:103AE000FA693B68D21AF9693B6ACB1A5B089A42B9
:103AF00002D9BB6A0133BB62BB6A072B01D907231A
:103B0000BB627B685B687A685268128892B222F066
:103B1000380292B21A807B685B687A6852681288B1
:103B200091B2BA6A92B2D20092B20A4392B21A80A9
:103B3000BB6A0133FA6ADA407B689A607B689B68EB
:103B400018463037BD4680BDF0D4000890B583B02C
:103B500000AF78600B46FB707B68184604F030FEBF
:103B60007B68134A1A60FB78002B02D0FB78032B8A
:103B700003D91048FEF7DAF815E0FB78013B9A010B
:103B80000D4B134440201946FEF7E2FF0446002C7B
:103B900006D0FB7820461946FFF7F4FD234600E0E7
:103BA00023467A6893617B6818460C37BD4690BD02
:103BB00080DA0008F0D40008D80C002080B590B05E
:103BC00000AFF860B9601346FB71FB689B69FA7936
:103BD0009A70FB689B691B78022B0ED0032B17D0C1
:103BE000012B20D14FF48050012102F0B5FD4FF49C
:103BF0008000012102F074FD1BE04FF480400121A0
:103C000002F08CFD4FF40010012102F069FD10E07C
:103C10004FF40040012102F081FD4FF4001001211A
:103C200002F05EFD05E08248FEF780F84FF0FF33BA
:103C300079E1FB689B699A6B7E4B9A420BD0FB68DB
:103C40009B691A6B7B4B9A4205D0FB689B695A6B48
:103C5000784B9A4203D10120012102F041FDFB681B
:103C60009B699A6B744B9A420BD0FB689B691A6BE9
:103C7000714B9A4205D0FB689B695A6B6E4B9A4216
:103C800003D10220012102F02BFDFB689B699A6B96
:103C90006A4B9A420BD0FB689B691A6B674B9A423E
:103CA00005D0FB689B695A6B644B9A4203D1042090
:103CB000012102F015FDFB689B699A6B604B9A42EB
:103CC0000BD0FB689B691A6B5D4B9A4205D0FB6871
:103CD0009B695A6B5A4B9A4203D10820012102F08A
:103CE000FFFCFB689B699A6B564B9A420BD0FB68B2
:103CF0009B691A6B534B9A4205D0FB689B695A6BC0
:103D0000504B9A4203D11020012102F0E9FCFB68DC
:103D10009B699A6B4C4B9A420BD0FB689B691A6B60
:103D2000494B9A4205D0FB689B695A6B464B9A42B5
:103D300003D12020012102F0D3FCFB689B699A6B20
:103D4000424B9A420BD0FB689B691A6B3F4B9A42DD
:103D500005D0FB689B695A6B3C4B9A4203D14020CB
:103D6000012102F0BDFC022387F82C30002387F8E4
:103D70002E30022387F82D30002387F82F30FB6880
:103D80009B69DB6ABB62FB689B699A6B07F128033E
:103D90001046194602F0D2FAFB689B695B6ABB6267
:103DA000FB689B691A6B07F128031046194602F05D
:103DB000C5FAFB689B699B6ABB62FB689B695A6B8F
:103DC00007F128031046194602F0B8FA0023FB63F6
:103DD0000023BB6300237B63FB689B69DB6A3B6357
:103DE00002E0FB6B0133FB633B6B5B083B633B6BAC
:103DF000002B0CBF00230123DBB2002BF1D1FB68A9
:103E00009B695B6A3B6302E0BB6B0133BB633B6B4B
:103E10005B083B633B6B002B0CBF00230123DBB231
:103E2000002BF1D1FB689B699B6A3B6313E000BFE9
:103E3000F0D40008000002400004024000080240E4
:103E4000000C024000100240001402400018024022
:103E50007B6B01337B633B6B5B083B633B6B002BF2
:103E60000CBF00230123DBB2002BF1D1FB689B695F
:103E7000996BFB6B9AB2FB689B69DB6BDBB2084604
:103E800011461A4602F02CFBFB689B69196BBB6B51
:103E90009AB2FB689B69DB6BDBB2084611461A4697
:103EA00002F01EFBFB689B69596B7B6B9AB2FB6847
:103EB0009B69DB6BDBB2084611461A4602F010FB29
:103EC0000023BB8200233B8300237B830023BB832F
:103ED00000233B8400237B844FF40073FB83FB7936
:103EE000002B02D00023FB8202E04FF48273FB829E
:103EF000FB689B695A6807F114031046194602F0E3
:103F0000DDFCFB689B691846B968FFF79BFDFB6801
:103F10009B695B681846012102F014FDFB689B69F0
:103F200001225A70002318464037BD4680BD00BFAD
:103F300080B588B000AF78607B689B695B68184685
:103F4000002102F0FFFC7B689B691B78022B09D0E3
:103F5000032B0DD0012B11D14FF48050002102F022
:103F6000FBFB0FE04FF48040002102F0D7FB09E09B
:103F70004FF40040002102F0D1FB03E04748FDF779
:103F8000D5FE88E007F10803184602F065FA7B6861
:103F90009B695B6ABB607B689B691A6B07F10803CE
:103FA0001046194602F0CAF97B689B699B6ABB60A0
:103FB0007B689B695A6B07F108031046194602F0AB
:103FC000BDF97B689B69DB6ABB607B689B699A6B08
:103FD00007F108031046194602F0B0F90023FB610F
:103FE0000023BB6100237B617B689B69DB6A3B61CB
:103FF00002E0FB690133FB613B695B083B613B69A4
:10400000002B0CBF00230123DBB2002BF1D17B6816
:104010009B695B6A3B6102E0BB690133BB613B6941
:104020005B083B613B69002B0CBF00230123DBB223
:10403000002BF1D17B689B699B6A3B6102E07B6945
:1040400001337B613B695B083B613B69002B0CBF23
:1040500000230123DBB2002BF1D17B689B699A6BB3
:10406000FB699BB210461946002202F039FA7B68C0
:104070009B691A6BBB699BB210461946002202F07D
:104080002FFA7B689B695A6B7B699BB21046194675
:10409000002202F025FA2037BD4680BDF0D400088A
:1040A00080B483B000AF7860012318460C37BD465A
:1040B0005DF8047B704700BF80B483B000AF7860C8
:1040C000012318460C37BD465DF8047B704700BFDE
:1040D00080B586B000AFF860B9607A60FB689B6914
:1040E0005B7883F00103DBB2002B02D04FF0FF338B
:1040F0007DE0FB689B691846FFF754FC3E4B7B61F3
:10410000FB689B695B680C331A467B695A60FB68E5
:104110009B691A6A7B691A607B694022DA607B6955
:1041200001221A63BA687B699A607B697A681A61AE
:10413000FB689B691B6918462F4901F007FFFB6864
:104140009B691B6918461021002202F037F8FB68B2
:104150009B691B691846012101F084FF00BFFB68C1
:104160009B691B69184601F0A7FF0346012B0CBF92
:1041700000230123DBB2002BF1D1FB689B695B6854
:1041800018460221012202F0FDFB00BFFB689B697B
:104190001A69FB689B699B691046194601F0A4FFE8
:1041A0000346002B14BF00230123DBB2002BEDD10B
:1041B000FB689B691A69FB689B699B6910461946F5
:1041C00001F0CEFFFB689B691846FFF7EBFBFB682D
:1041D0009B695B6818460221002202F0D3FBFB6852
:1041E0001B6828331B68FA68104698477B68184696
:1041F0001837BD4680BD00BF9C0C002080B586B03E
:1042000000AFF860B9607A603B60FB689B695B78DF
:1042100083F00103DBB2002B02D04FF0FF330AE141
:10422000FB689B691846FFF7BDFB854B7B61FB680C
:104230009B695B680C331A467B695A60FB689B6913
:104240001A6A7B691A607B694022DA607B69012205
:104250001A63BA687B699A607B697A681A61FB683D
:104260009B691B691846796901F070FEFB689B69C0
:104270005B680C331A467B695A60FB689B69DA6994
:104280007B691A607B690022DA607B6903221A630A
:104290003A687B699A607B693A6A1A61FB689B6934
:1042A000DB681846796901F051FEFB689B69DB68A1
:1042B00018461021002201F081FFFB689B691B69F1
:1042C00018461021002201F079FFFB689B69DB682A
:1042D0001846012101F0C6FEFB689B691B69184660
:1042E000012101F0BFFEFB689B695B681846032152
:1042F000012202F047FB00BFFB689B691A69FB685B
:104300009B699B691046194601F0EEFE0346002B9F
:1043100014BF00230123DBB2002BEDD1FB689B69A6
:104320001A69FB689B699B691046194601F018FFE2
:104330003A6A7B689A424CD9FB689B695B680C338C
:104340001A467B695A60FB689B691A6A7B691A6026
:104350007B694022DA607B6901221A633A687B69D3
:104360009A603A6A7B68D21A7B691A61FB689B691A
:104370001B691846796901F0E9FDFB689B691B69B7
:104380001846012101F06EFEFB689B695B681846C8
:104390000221012202F0F6FA00BFFB689B691A694C
:1043A000FB689B699B691046194601F09DFE034618
:1043B000002B14BF00230123DBB2002BEDD1FB68DF
:1043C0009B691A69FB689B699B691046194601F055
:1043D000C7FE00BFFB689B69DA68FB689B695B6985
:1043E0001046194601F080FE0346002B14BF00233F
:1043F0000123DBB2002BEDD1FB689B69DA68FB6817
:104400009B695B691046194601F0AAFEFB689B692F
:104410001846FFF7C7FAFB689B695B6818460321DB
:10442000002202F0AFFAFB681B682C331B68FA68A5
:10443000104698473B6A18461837BD4680BD00BFF6
:104440009C0C0020B0B582B000AF786039607B680A
:10445000012B10D13A684FF6FF739A420BD1074BEC
:1044600002241D4604E02846FFF780F94035013C50
:10447000B4F1FF3FF7D10837BD46B0BDD80C0020DE
:1044800080B500AF01204FF6FF71FFF7DBFF80BD65
:1044900080B483B000AF78600C37BD465DF8047B14
:1044A000704700BF80B483B000AF78600023184627
:1044B0000C37BD465DF8047B704700BF80B483B005
:1044C00000AF0346FB71084B97F907205209F979B1
:1044D00001F01F01012000FA01F143F822100C370E
:1044E000BD465DF8047B704700E100E080B483B016
:1044F00000AF0346FB71094B97F907205209F97980
:1045000001F01F01012000FA01F1203243F82210CE
:104510000C37BD465DF8047B704700BF00E100E04A
:1045200080B483B000AF0346FB71094B97F90720B5
:104530005209F97901F01F01012000FA01F16032FE
:1045400043F822100C37BD465DF8047B704700BF6E
:1045500000E100E080B582B000AF78607B6818466B
:10456000064964224FF4FA6303F0BAFC7B68044AFC
:104570001A607B6818460837BD4680BD90D5000894
:10458000F0DA000880B582B000AF78607B68343321
:10459000184601F08DFA7B6803F5A073184601F008
:1045A00087FA7B6818460837BD4680BD00000000CA
:1045B00080B586B002AF78600CE0FDF793FD29A3CB
:1045C000D3E90023121843EB0103104619460022D9
:1045D00003F0D6FD1E4B1B78DBB283F00103DBB288
:1045E000002BEAD179681B4A4FF00003CDE9002384
:1045F0000846194A4FF0000304F04CFB1CE001236D
:10460000FB6016E0154AFB684FF4137101FB03F3DE
:10461000134420331B78002B08D0FB685A1E104B24
:1046200053F822301846002101F01CFDFB680133CD
:10463000FB60FB68032BE5DD7B68184604F040FB5C
:104640000123002BDBD11037BD4680BDAFF30080C6
:10465000AC1D00208096980040420F00980D00206D
:104660001400002000E40B5402000000AFF30080AF
:1046700080B588B004AFF860F9723A81FB80FB68BE
:10468000184604F09DF8FB68174A1A60FB7A002B65
:1046900002D0FB7A062B07D9FB68144A9A61FB68A3
:1046A0009B69FA7A1A701AE0FB7A4FF4137202FBD4
:1046B00003F20E4B1A44FB689A61FB689969FA7A17
:1046C000B7F90830B7F906000090B7F91800019063
:1046D000B7F91C0002900846F96800F05BFDFB6822
:1046E00018461037BD4680BD08DB0008980D002035
:1046F00080B586B004AF78600B46FB707B681846C7
:1047000004F05EF87B685F4A1A60FB78002B02D0E9
:10471000FB78062B07D97B685B4A9A617B689B69AB
:10472000FA781A70A9E0FB784FF4137202FB03F2D7
:10473000554B1A447B689A61FB78013B072B00F2CA
:104740009B8001A252F823F06947000889470008BE
:10475000A9470008C9470008ED47000811480008AC
:1047600031480008554800087B689A69FB78172192
:1047700000910C2101910B210291104679681A4693
:10478000162300F007FD78E07B689A69FB783621F4
:1047900000913421019133210291104679681A4623
:1047A000352300F0F7FC68E07B689A69FB783921D3
:1047B00000911E2101913B210291104679681A4611
:1047C000382300F0E7FC58E07B689A69FB782B21DE
:1047D00000914FF0FF3101914FF0FF3102911046EF
:1047E00079681A462A2300F0D5FC46E07B689A696E
:1047F000FB78322100914FF0FF3101914FF0FF31F2
:104800000291104679681A462C2300F0C3FC34E06C
:104810007B689A69FB7827210091682101916F21BB
:104820000291104679681A46262300F0B3FC24E072
:104830007B689A69FB78562100914FF0FF31019116
:104840004FF0FF310291104679681A46572300F065
:10485000A1FC12E07B689A69FB78402100914FF03F
:10486000FF3101914FF0FF310291104679681A46ED
:10487000412300F08FFC00E000BF7B68184608373A
:10488000BD4680BD08DB0008980D002080B500AF54
:10489000034800F0C5FE2520FFF742FE80BD00BFA3
:1048A000E40F002080B500AF034800F0B9FE2620D9
:1048B000FFF736FE80BD00BF3012002080B500AF8C
:1048C000034800F0ADFE2720FFF72AFE80BD00BFA1
:1048D0007C14002080B500AF034800F0A1FE342016
:1048E000FFF71EFE80BD00BFC816002080B500AFD8
:1048F000034800F095FE3520FFF712FE80BD00BF93
:104900001419002080B500AF034800F089FE47204D
:10491000FFF706FE80BD00BF601B002080B500AF22
:104920000D480E4901F084FC0346002B0CBF002308
:104930000123DBB2002B0AD00748084901F0D0FC64
:104940004620FFF7EDFD064800F080FD02E046201E
:10495000FFF7E6FD80BD00BFB8640240008000287C
:10496000E40F002080B500AF0D480E4901F060FC57
:104970000346002B0CBF00230123DBB2002B0AD01F
:104980000748084901F0ACFC1120FFF7C9FD0648B3
:1049900000F05CFD02E01120FFF7C2FD80BD00BF0A
:1049A000A0600240008020203012002080B500AFBF
:1049B0000D480E4901F03CFC0346002B0CBF0023C0
:1049C0000123DBB2002B0AD00748084901F088FC1C
:1049D0000E20FFF7A5FD064800F038FD02E00E208E
:1049E000FFF79EFD80BD00BF5860024000800018A8
:1049F0007C14002080B500AF0D480E4901F018FC72
:104A00000346002B0CBF00230123DBB2002B0AD08E
:104A10000748084901F064FC4420FFF781FD06487F
:104A200000F058FD02E04420FFF77AFD80BD00BF92
:104A30008864024000880020E40F002080B500AFA9
:104A40000D480E4901F0F4FB0346002B0CBF002378
:104A50000123DBB2002B0AD00748084901F040FCD3
:104A60001020FFF75DFD064800F034FD02E0102045
:104A7000FFF756FD80BD00BF88600240008800201F
:104A80003012002080B500AF0D480E4901F0D0FB78
:104A90000346002B0CBF00230123DBB2002B0AD0FE
:104AA0000748084901F01CFC0C20FFF739FD0648B7
:104AB00000F010FD02E00C20FFF732FD80BD00BFCA
:104AC00028600240008800107C14002080B582B06D
:104AD00000AF786039607B689B691B78002B04D03D
:104AE0007B689B691B78062B02D94FF0FF3306E0E9
:104AF0007B689B691846396800F03AFF0346184600
:104B00000837BD4680BD00BF90B58FB000AFF860DC
:104B10000B467A60FB72FB689B691B7887F837301D
:104B200097F83730002B03D097F83730062B02D98F
:104B30004FF0FF33CAE0FB689B695B693B6307F199
:104B40002003184602F0C4F8FB689B699B683B622F
:104B5000FB689B695B689BB2BB85FB7A012B11D01C
:104B6000022B77D0002B40F09F807B68002B06DD66
:104B70007B683B62FB689B697A689A6097E04FF0BC
:104B8000FF33A3E097F83730042B0BD097F837307A
:104B9000052B07D097F83730072B03D097F837301D
:104BA000082B02D14FF0FF3390E007F118031846AD
:104BB00001F052FC07F11003184601F04DFC7B6830
:104BC000002B2BDDFB689B699B8B1BB2B3F1FF3F76
:104BD00024D04FF44073BB85FB689B694FF440724F
:104BE0005A60FB689B699C8BFB689B69184600F0C8
:104BF0001BFE034622B210461946FEF7EBF9FB688E
:104C00009B69DC8BFB689B69184600F00DFE034630
:104C100022B210461946FEF7DDF91AE0FB689B69DF
:104C20009B8B1BB2B3F1FF3F13D00023BB85FB6806
:104C30009B6900225A60FB689B699B8B1BB21846DC
:104C4000FEF718FAFB689B69DB8B1BB21846FEF770
:104C500011FA2CE0FB689B691B78032B02D94FF0FB
:104C6000FF3333E0FB689B69184600F0C9FA7B68A4
:104C7000B3F5807F05DDFB689B694FF480721A6392
:104C800003E0FB689B697A681A63FB689B690122F1
:104C900083F82020FB689B69184600F073FC0D4BDD
:104CA00001221A70002311E04FF0FF330EE0386B41
:104CB000002102F029F807F12003386B194601F0B2
:104CC0004DFF386B012102F01FF8002318463C37D6
:104CD000BD4690BDAC1D002080B584B000AF7860AB
:104CE0007B689B691B78002B04D07B689B691B78D1
:104CF000062B00D951E07B689B695B69FB607B6890
:104D00009B69184600F0C4FD03461846FFF7EEFB0A
:104D1000F86801F099FE7B689B695B8B1BB21846B3
:104D2000FEF7A8F97B689B691B8B1BB21846FEF740
:104D3000A1F97B689B695B68B3F5407F05D07B6810
:104D40009B695B68B3F5807F0DD17B689B699B8B0A
:104D50001BB2B3F1FF3F06D07B689B699B8B1BB2F4
:104D60001846FEF787F97B689B695B68B3F5407F5F
:104D700005D07B689B695B68B3F5007F0DD17B68CC
:104D80009B69DB8B1BB2B3F1FF3F06D07B689B694D
:104D9000DB8B1BB21846FEF76DF91037BD4680BDA0
:104DA00080B588B000AFF860B9607A60FB689B6935
:104DB0001B78002B04D0FB689B691B78062B02D95B
:104DC0004FF0FF3355E07B68002B01DC002350E0FF
:104DD00000237B610023FB61FB689B6903F13402C4
:104DE00007F114031046194600F074FEB861BB6960
:104DF000002B3DD07A697B689A4201DD7B687B613C
:104E00000023FB610BE0FB69BA681344FA69B969D6
:104E10000A441278D2B21A70FB690133FB617B69D4
:104E2000FA699A42EFDBFB689B6903F134027B6904
:104E30001046194600F07EFEFB689B6993F820300F
:104E4000002B0BD0FB689B6993F82830DBB283F012
:104E50000103DBB2002B01D0012300E00023002B73
:104E600004D0FB689B69184600F08CFB7B6900E06E
:104E7000002318462037BD4680BD00BF80B588B0EE
:104E800000AFF860B9607A60FB689B691B78002B03
:104E900004D0FB689B691B78062B02D94FF0FF33C7
:104EA00060E07B68002B01DC00235BE00023FB61FA
:104EB000FB689B6903F5A07207F1140310461946BD
:104EC00000F04CFEB861BB69002B4AD07A697B6860
:104ED0009A4201DA7B697B600023FB610BE0FB698E
:104EE000BA691344FA69B9680A441278D2B21A70DE
:104EF000FB690133FB61FA697B689A42EFDBFB686F
:104F00009B6903F5A0731846796800F067FEFB689B
:104F10009B695B69184640F22661002201F048FF58
:104F2000FB689B6993F82030002B0FD0FB689B69CE
:104F300093F82130DBB283F00103DBB2002B0ED0FB
:104F4000FB689B69184600F0FBFA08E0FB689B6968
:104F50005B69184640F22771012201F029FF7B6846
:104F600000E0002318462037BD4680BD80B584B0E0
:104F700000AF78607B689B691B78002B04D07B684E
:104F80009B691B78062B02D94FF0FF332EE00023DC
:104F9000BB737B689B6903F1340207F10E03104673
:104FA000194600F02FFE0346FB737B689B6993F85C
:104FB0002030002B0BD07B689B6993F82830DBB244
:104FC00083F00103DBB2002B01D0012300E00023BA
:104FD000002B04D07B689B69184600F0D3FAFB7B5A
:104FE000002B01D0BB7B01E04FF0FF331846103798
:104FF000BD4680BD80B584B000AF78600B46FB70C5
:105000007B689B691B78002B04D07B689B691B78AD
:10501000062B02D94FF0FF333CE07B689B6903F518
:10502000A072FB78FB7307F10F031046194600F0DE
:1050300015FE0346002B2BD07B689B695B691846E5
:1050400040F22661002201F0B3FE7B689B6993F871
:105050002030002B0FD07B689B6993F82130DBB2A6
:1050600083F00103DBB2002B0ED07B689B691846EE
:1050700000F066FA08E07B689B695B69184640F2BD
:105080002771012201F094FE97F90330DBB201E0B1
:105090004FF0FF3318461037BD4680BD80B584B051
:1050A00000AF78600B46FB707B689B691B78002B18
:1050B00004D07B689B691B78062B02D94FF0FF3325
:1050C00019E0FB78002B02D0012B08D011E07B689F
:1050D0009B693433184600F0EDFD03460BE07B6816
:1050E0009B691B69FB607B689B6900221A61FB68F6
:1050F00001E04FF0FF3318461037BD4680BD00BFBA
:1051000080B582B000AF78607B689B691B78002B0C
:1051100004D07B689B691B78062B01D9002316E01D
:105120007B689B6903F5A073184600F0E3FD034616
:10513000002B0BD07B689B695B691846402101F00E
:105140007FFE0346012B01D1012300E00023184616
:105150000837BD4680BD00BF80B582B000AF786023
:105160007B689B691B78002B04D07B689B691B784C
:10517000062B01D9002309E07B689B69343318466C
:1051800000F0B8FD034683F00103DBB21846083790
:10519000BD4680BD80B584B000AFF860B960FA71DB
:1051A000BB80FB68FA791A70FB684FF4E1329A60B1
:1051B000FB6800225A60FB68BA68DA60FB6800226C
:1051C00083F82020FB68002283F82120FB6800225E
:1051D00083F82820F86800F087FB0246FB685A61D4
:1051E000FB68BA881A83FB683A8B5A83FB68BA8BD0
:1051F0009A83FB683A8CDA831037BD4680BD00BFC6
:1052000080B592B000AF78607B681B78002B00F00F
:10521000B6807B681B78032B00F2B18000F0E6F9C2
:105220007B681B785A1E574B53F822307B6407F17A
:105230000803184600F0E0FE4FF00063BB607B6897
:105240005B690433FB6000233B6140237B611023D7
:10525000BB610023FB614FF480633B6200237B62F0
:105260000023BB620023FB624FF480333B630023C7
:105270007B630123BB630023FB6300233B6407F1D3
:105280000803786C194600F061FE786C1021012249
:1052900000F094FF7B685B6918468021012201F0D1
:1052A00063FD7B681B785A1E374B53F822307B64B2
:1052B00007F10803184600F09FFE4FF00063BB6043
:1052C0007B685B690433FB6000233B6100237B61E7
:1052D0001023BB610023FB614FF480633B6200231A
:1052E0007B620023BB620023FB624FF480333B638D
:1052F00000237B630123BB630023FB6300233B6428
:1053000007F10803786C194600F020FE786C102134
:10531000012200F053FF7B685B69184640F225517B
:10532000002201F045FD7B685B691846602101227F
:1053300001F03EFD7B685B6918464021012201F0C7
:1053400013FD7B681B78022B0BD0032B10D0012B95
:1053500000D014E04620FFF7B1F84420FFF7AEF884
:105360000DE01120FFF7AAF81020FFF7A7F806E0DC
:105370000E20FFF7A3F80C20FFF7A0F800BF483776
:10538000BD4680BD080000201400002080B586B016
:1053900000AFF860B9607A60FB681B78002B03D01F
:1053A000FB681B78032B00D914E0FB681B785A1E9E
:1053B0000A4B53F822307B617869002100F052FEDD
:1053C000BA687B69DA607A687B695A60786901211A
:1053D00000F048FE1837BD4680BD00BF0800002021
:1053E00080B586B000AFF860B9607A60FB681B7862
:1053F000002B03D0FB681B78032B00D920E0FB684F
:105400001B785A1E104B53F822307B6178690021BB
:1054100000F028FE00BF786900F04EFE0346012B25
:1054200014BF00230123DBB2002BF4D1BA687B69DF
:10543000DA607A687B695A607869012100F012FEAF
:105440001837BD4680BD00BF1400002080B586B06F
:1054500000AF78607B681B78002B03D07B681B78DB
:10546000032B00D930E07B681B785A1E184B53F889
:1054700022307B61786900F011FE03463B617B6856
:105480005A6A3B69D31AFB607B6803F5A073184620
:10549000F96800F04FFB7B6803F5A073184600F035
:1054A00029FC0346002B0CD07B68002283F82120C6
:1054B0007B685B69184640F22661012201F078FCA6
:1054C00002E0786800F03CF81837BD4680BD00BFA8
:1054D0000800002090B585B000AF78607B681B782D
:1054E000002B03D07B681B78032B00D923E07B685B
:1054F0001B785A1E114B53F82230FB607B68DC6A24
:10550000F86800F0CBFD0346E31ABB607B683433D8
:105510001846B96800F062FBBB68002B08DD7B68A9
:10552000DB681B6830331B687A68D268104698477E
:10553000786800F027F81437BD4690BD14000020AD
:1055400080B584B000AF78607B6803F5A07207F186
:1055500008031046194600F0BDFAF860FB68002BFE
:105560000CD0BA687B685A627B68012283F82120DC
:10557000BB687868F9681A46FFF708FF1037BD4620
:1055800080BD00BF80B584B000AF78607B6803F158
:10559000340207F108031046194600F0DFFAF860FC
:1055A000FB68002B15D07B681A6BBB689A4202DA45
:1055B0007B681B6BBB60BA687B68DA627B68012220
:1055C00083F82820BB687868F9681A46FFF708FF57
:1055D00008E07B68002283F828207B681B695A1C3E
:1055E0007B681A611037BD4680BD00BF80B500AF33
:1055F0000A4B1B7883F00103DBB2002B0CD0074B66
:1056000001221A704FF40010012101F069F84FF4E3
:105610008000012101F064F880BD00BF001E002061
:1056200080B584B000AF78607B685B69184608215C
:1056300001F006FC0346002B22D17B6893F8203052
:10564000002B1FD07B685B6918464FF4B07101F0E6
:1056500013FC0346002B13D17B685B6918464FF49B
:10566000187101F009FC0346002B09D17B685B69C6
:1056700018464FF4587101F0FFFB0346002B01D090
:10568000012300E00023002B0AD07B685B691846E9
:1056900001F05AFB7B681B695A1C7B681A6185E024
:1056A0007B685B69184640F2255101F0E5FB034633
:1056B000002B0CBF00230123DBB2002B25D07B681D
:1056C0005B69184601F040FB0346DBB2FB737B6865
:1056D00003F1340207F10F031046194600F0BEFA39
:1056E000034683F00103DBB2002B04D07B681B6907
:1056F0005A1C7B681A617B68DB681B6830331B6847
:105700007A68D2681046984750E07B685B69184613
:1057100040F2277101F0B0FB0346002B0CBF0023C1
:105720000123DBB2002B21D07B6803F5A07207F1C7
:105730000F031046194600F065FA0346002B04D00B
:105740007B685B69FA7B9A8030E07B685B6918460E
:1057500040F22771002201F02BFB7B685B69184641
:1057600040F22661012201F023FB1FE07B685B69A8
:10577000184640F2266101F07FFB0346002B0CBF68
:1057800000230123DBB2002B10D07B685B69184635
:1057900040F22661002201F00BFB7B68DB681B688E
:1057A00028331B687A68D268104698471037BD4680
:1057B00080BD00BF80B483B000AF78607B681B7889
:1057C000013B072B28D801A252F823F0ED5700081F
:1057D000F1570008F7570008FD5700080358000864
:1057E000095800080D58000813580008102314E049
:1057F0004FF4003311E04FF480230EE04FF4002308
:105800000BE04FF4801308E0202306E04FF08043C4
:1058100003E04FF0004300E0002318460C37BD467C
:105820005DF8047B704700BF80B483B000AF786040
:105830007B681B78013B072B22D801A252F823F08A
:105840006158000865580008695800086D5800083C
:105850007158000875580008795800087D580008EC
:1058600007230EE007230CE007230AE0082308E0E3
:10587000082306E0082304E0082302E0082300E0F0
:10588000002318460C37BD465DF8047B704700BF07
:1058900080B483B000AF78607B681B78013B052B38
:1058A0001AD801A252F823F0C1580008C5580008C0
:1058B000C9580008CD580008D1580008D55800082C
:1058C00025230AE0262308E0272306E0342304E00A
:1058D000352302E0472300E025235BB218460C374E
:1058E000BD465DF8047B704780B483B000AF78603C
:1058F0007B681B78013B072B22D801A252F823F0CA
:105900002159000825590008295900082D59000877
:105910003159000835590008395900083D59000827
:105920000B4B0EE00B4B0CE00B4B0AE00B4B08E073
:105930000B4B06E00B4B04E00B4B02E00B4B00E083
:10594000002318460C37BD465DF8047B704700BF46
:10595000001001400044004000480040004C00405E
:10596000005000400014014000780040007C0040DE
:1059700090B587B000AF786039607B681B78002BEA
:1059800003D07B681B78062B02D94FF0FF3363E00E
:105990003A687B689A607B685B69184601F054F846
:1059A0007B681B78012B03D07B681B78062B08D102
:1059B0007868FFF7FFFE03461846012100F0CCFE91
:1059C00007E07868FFF7F6FE03461846012100F06D
:1059D000A5FE7B685C8B7868FFF726FF034622B242
:1059E00010461946FDF7F6FA7B681C8B7868FFF7BE
:1059F0001BFF034622B210461946FDF7EBFA07F1EA
:105A00000803184601F064F93B68BB607B685A697B
:105A100007F108031046194601F0A0F87B685B699E
:105A20001846012101F070F97B685B69184640F265
:105A30002551012201F0BCF97B685B69184640F2F0
:105A40002771012201F0B4F97868FFF721FF0346BE
:105A50001846FEF733FD002318461C37BD4690BD9F
:105A600080B582B000AF78607B68084A1A607B68B6
:105A70001846FBF7AFFB0023002B02D07868FCF739
:105A80004DFA7B6818460837BD4680BDD8DA000855
:105A900080B582B000AF78607868FFF7E1FF786882
:105AA000FCF73CFA7B6818460837BD4680BD00BF4E
:105AB00080B582B000AF78607B68184600F030F99E
:105AC0007B68034A1A607B6818460837BD4680BD6C
:105AD000C0DA000880B485B000AF786039607B68B8
